:1000000000308A00D32800000330B502031C1228F8
:100010003530840083130008031912281028102893
:10002000800B0F28080026082802B2002908B30018
:100030002708031C270FB30222082402F700250813
:10004000FA002308031C230FFA027708B4007A0889
:10005000B5003308B7003208B6003508B9003408D7
:10006000B800F801F901F701FA013908031D3B282E
:100070003808031955281030BA000310B60DB70D13
:10008000F70DFA0D39087A02031D4828380877025F
:10009000031C51283808F702031CFA033908FA0236
:1000A0000314F80DF90DBA0B3D287908AF00780854
:1000B000AE0022082C02F7002D08FA002308031CCA
:1000C000230FFA027708B2007A08B3002F08B500B0
:1000D0002E08B4003308B7003208B6001030B8005C
:1000E000F701FA01B50CB40C031C7C283608F7079D
:1000F0000318FA0A3708FA07FA0CF70CF90CF80C8F
:10010000B80B72287908AF007808AE0026082E07D1
:10011000B0002F08B10027080318270FB107831676
:100120000610831206143108B200B20AB203031992
:100130009D28FF30B500042096283008B500042023
:10014000831606108312061030082002B200210820
:10015000B3003108031C310FB3023308B400B40AF2
:10016000B4030319B728FF30B5000420B0283208C3
:10017000B50004208A110A12FE282D308400831352
:1001800000080319D0280630F800F701F70BC6283D
:10019000F80BC5287B30F700F70BCC28800BC32861
:1001A0008A110A12032903081F3983004E30A10067
:1001B0002030A000A301A201A501B430A4000130A9
:1001C000A700F430A6000930A900C430A8008316A7
:1001D0001F149F141F159F1107309C008313831257
:1001E000AB01AA01AB08031D0A292A08B43C031C71
:1001F0000A292B08AD002A08AC0013280230AC00F5
:10020000FA30AD00BD28AC0B00291E30AA07031838
:08021000AB0AF228F02863009C
:02400E00323F3F
:00000001FF
;PIC16F877A
;CRC=7745  CREATED="16-Sep-23 12:05"
