:1000000000308A00332800000030F80006389200E3
:100010006430831692008312201120088316870013
:10002000831207110C309700A01020088316870058
:10003000831287100C309D008A110A124228223048
:10004000840083130008031932280630F800F701F2
:10005000F70B2828F80B27287B30F700F70B2E2802
:10006000800B2528080003081F398300FF30A000FB
:1000700083161F149F141F159F1107309C008313B4
:1000800083120428643095009B010C30A100FA30E3
:10009000A2001F20A10B4728950164309B000C3063
:1000A000A100FA30A2001F20A10B512842286300B2
:02400E00323F3F
:00000001FF
;PIC16F877A
;CRC=EF36  CREATED="20-Sep-23 21:08"
