:1000000000308A00B12800002D080739F7002D0CB8
:10001000F800F80CF80C1F30F80578082F0784005A
:10002000831330188317F801F80AF70A1828F80D17
:10003000F70B1728AE080319202878088004232816
:10004000F8097808800508002D080739F7002D0CFD
:10005000F800F80CF80C1F30F80578082E0784001B
:1000600083132F1883170008F800F70A3828F80CB4
:10007000F70B372808002B08AD000130AE00B001A7
:100080008030AF0004202B08AD00AF01AE0124206A
:1000900078185D282B08AD000130AE00B00180302B
:1000A000AF0004202B08AD00AF01AE012420781C66
:1000B0004A280130F8005F285F280030F8008A11D4
:1000C0000A12D4288714AA102A08831687008312DC
:1000D000AD08031D6E28AE0803198C280430AF004C
:1000E000E130B00030308400831300080319852804
:1000F0000630F800F701F70B7B28F80B7A287B30E5
:10010000F700F70B8128800B7828AF0B70282D089B
:100110000319AE03AD0368288710AA102A088316B6
:100120008700831208008714AA102A088316870004
:100130008312AB08031D9F28AC080319A828AE0141
:100140003A30AD0062202B080319AC03AB039928A9
:100150008710AA102A088316870083128A110A12B0
:10016000DB2803081F3983004E30A1002030A00097
:10017000A301A201A501B430A4000130A700F4300E
:10018000A6000930A900C430A800FF30AA008316D9
:100190001F149F141F159F1107309C008313831297
:1001A000AC014730AB003B28F8080319DF28AC014D
:1001B0000130AB009328AE010530AD006220D0289D
:0201C0006300DA
:02400E00323F3F
:00000001FF
;PIC16F877A
;CRC=40DD  CREATED="17-Sep-23 11:45"
