:1000000001308A00742900003A308400831300080C
:10001000031917280630F800F701F70B0D28F80B25
:100020000C287B30F700F70B1328800B0A280800F8
:1000300040181C2808121D2808168316081283125F
:10004000C01824288812252888168316881283123F
:1000500040192C2808132D2808178316081383121B
:10006000C019342888133528881783168813000090
:1000700083128815831688110230F700F70B3E288B
:10008000412800008312881183168811831208000A
:10009000C1018316081600308312081A0130C1040A
:1000A0008316881600308312881A0130F700031077
:1000B000F70D7708C1048316081700308312081B58
:1000C0000130F700F70DF70DFC30F7057708C10494
:1000D0008316881700308312881B0130F700F70D54
:1000E000F70DF70DF830F7057708C1044108F8005F
:1000F000080083168811881008118312881083164F
:100100008810081688160817881783120815831692
:1001100008110000831288158316881100008312CD
:1001200048207808C00088118316881100008312C7
:100130008815831688119C289D280000831248206A
:100140007808BF00881183168811081288120813D6
:1001500088138312400EF700F030F70577083F044C
:10016000F8007808BF00BF1FB72883168128BD0894
:10017000031DBC288810BD28881483168810000031
:100180008312081183160811000083128811831648
:10019000881183123E0EBF000F30BF053F08C0001C
:1001A00018203E080F39BF00C00018200800283072
:1001B000B6000C30B7000130B8000630B900881125
:1001C00083168811831288108316881083120811F1
:1001D00083160811081288120813881388118810D2
:1001E00008110F308312BA0004200130B500350821
:1001F000033C031C03290330C00018200530BA005B
:100200000420B50AF7280230C00018200530BA00D3
:100210000420B5013508033C031C1A293630350784
:10022000840083130008BA00BD013A08BE0079209B
:10023000B50A0A298A110A12A2293A0B2029232970
:100240004030BB002429BB0101303902BB073B0809
:100250008038BC00BD013C08BE007920080036088B
:10026000FA003508840083137A188317800803196D
:1002700073293608FA003508840083137A18831727
:100280000008B7003708B8003808073A03195229A0
:100290000B3A03195729063A03195F29023A031941
:1002A00065296A290130B900BA001D216F29BD01F5
:1002B0000130BE0079200230BA0004206F290130DD
:1002C000B9000230BA001D216F29BD011030BE00F7
:1002D00079206F290130BD003808BE007920B50AA9
:1002E0000319B60A2F29080003081F398300831653
:1002F0001F149F141F159F1107309C008313433058
:100300008312A1004830A2004530A3004C30A40065
:100310005330A5004530A6004130A700A801543055
:10032000AB004F30AC005430AD00AE004530AF00F4
:100330004E30B0004830B1004130B2004D30B30013
:10034000B401D7280630B9000130BA001D21B6012A
:100350002130B5002F210530B9000230BA001D212F
:0C036000B6012B30B5002F21B42963003A
:02400E00323F3F
:00000001FF
;PIC16F877A
;CRC=8116  CREATED="16-Sep-23 18:44"
