:1000000004308A00742C0000D6274C2AA01EA012AF
:10001000AE1966105600433084008313000803199C
:100020001E280630F800F701F70B1428F80B1328E8
:100030007B30F700F70B1A28800B112808004918AD
:100040002328081224280816831608128312C918B8
:100050002B2888122C288816831688128312491997
:100060003328081334280817831608138312C91974
:100070003B2888133C2888178316881300008312B6
:100080008815831688110230F700F70B4528482899
:100090000000831288118316881183120800CA0198
:1000A0008316081600308312081A0130CA0483161A
:1000B000881600308312881A0130F7000310F70DFC
:1000C0007708CA048316081700308312081B013012
:1000D000F700F70DF70DFC30F7057708CA04831613
:1000E000881700308312881B0130F700F70DF70DD9
:1000F000F70DF830F7057708CA044A08F800080039
:1001000083168811881008118312881083168810AE
:100110000816881608178817831208158316081101
:1001200000008312881583168811000083124F2067
:100130007808C90088118316881100008312881579
:1001400083168811A328A428000083124F20780862
:10015000C8008811831688110812881208138813A2
:100160008312490EF700F030F70577084804F800CD
:100170007808C800C81FBE2883168828C608031D33
:10018000C3288810C428881483168810000083129E
:100190000811831608110000831288118316881134
:1001A0008312470EC8000F30C8054808C9001F2039
:1001B00047080F39C800C9001F2008002830BF00B9
:1001C0000C30C0000130C1000630C2008811831617
:1001D00088118312881083168810831208118316E1
:1001E0000811081288120813881388118810081142
:1001F0000F308312C3000B200130BE003E08033CC9
:10020000031C0A290330C9001F200530C3000B203E
:10021000BE0AFE280230C9001F200530C3000B2093
:10022000BE013E08033C031C21293F303E078400E9
:1002300083130008C300C6014308C7008020BE0A1C
:1002400011298A110A12832C8E30F7003F08F8001A
:100250003E08F900FA01F808031D38297908F8006A
:10026000F9010830F702F808031D3829F701402981
:100270000310F81B3F29F90DF80DF7033829F8137F
:100280008A110A12B02C4B080319B329D3004F0866
:100290000319B329D307031854297F30D302031C51
:1002A000B3290319B32958298130D3070318B32977
:1002B0005308F700F801F901FA014C08D700D717E5
:1002C0004D08D6004E08D5001830D300D401551C77
:1002D00081295208FA07031C7329F90A031D73299F
:1002E000F80A0319D4175108F907031C7A29F80AE8
:1002F0000319D4175008CD00CD174D08F80703187F
:10030000D417D40DF80CF90CFA0CD70CD60CD50C6C
:100310000310D30B66290130F7070318B329F81B24
:100320009829D70DFA0DF90DF80DF7030319B32924
:10033000D71FA929FA0A031DA929F90A031DA9290A
:10034000F80A031DA929F80CF90CFA0CF70A03198D
:10035000B3294C08D4005008D406D41FB129F8178B
:10036000B729F813B729F701F801F901FA010800D4
:10037000420803197D2ACE00460803197D2ACE02C1
:10038000031CC7297F30CE0703187D2ACD29813071
:10039000CE02031C7D2A03197D2A4E08F700F801BE
:1003A000F901FA01CD014308CC00CC174408CB0079
:1003B0004508CA001930CE004908CA020318F029BE
:1003C0000130CB020318F029CC020318F029CD022A
:1003D0000318F029CD0ACC0ACB0A4908CA07222AF9
:1003E0004808CB0203180B2A0130CC0203180B2A51
:1003F000CD0203180B2ACD0ACC0A4808CB074908BE
:10040000CA07031C222ACB0A031D222ACC0A031D79
:10041000222ACD0A222A47088038CC020318212A32
:100420000130CD020318212ACD0A47088038CC07B5
:100430004808CB07031CFF29CC0A031DFF29CD0A5E
:10044000FF297A14CE0B252A302A0310CA0DCB0DB2
:10045000CC0DCD0D0310FA0DF90DF80DCF0DDC29E3
:100460004F1C382A0310F80CF90CFA0CCF0C3B2A5D
:10047000F70303197D2ACF1B642A0310CA0DCB0D85
:10048000CC0DCD0D4908CA020318502A0130CB0209
:100490000318502ACC020318502ACD02031C732AD9
:1004A0004808CB0203185B2A0130CC0203185B2AF0
:1004B000CD02031C732A47088038CC020318642A33
:1004C0000130CD02031C732AFA0A031D732AF90AAC
:1004D000031D732AF80A031D732AF70A03197D2ADC
:1004E000F80CF90CFA0C4308CE004708CE06CE1FD4
:1004F0007B2AF817812AF813812AF701F801F901FC
:10050000FA018A110A12DF2C2008840083132118B3
:1005100083174B088000840A8001A00A0319A10AEE
:1005200008000B08BF008B13831603178C170C14DD
:100530000000000083120313BF1B8B170318C82A87
:1005400003170C087F390313BF0003170D080313AB
:10055000C00003170F080313C1003F08CB0084221B
:10056000400803178D000313410803178F0003137E
:100570000B08C2008B13831603178C170C14000092
:10058000000083120313C21B8B17BE0BC82AE72A75
:1005900003170C0D0E0D7F390313BF0003170D0851
:1005A0000313C00003170F080313C1003F08CB005B
:1005B0008422400803178D000313410803178F009E
:1005C0008D0A03198F0A03100313BE0B912A8A1197
:1005D0000A12F42C8318EF2A533084008313F70196
:1005E000F801F901FA01D301D401D501D60152086D
:1005F000510450044F0403192D2B2030D700031051
:10060000CB0DCC0DCD0DCE0DD30DD40DD50DD60DFE
:1006100052085602031D162B51085502031D162BB6
:1006200050085402031D162B4F085302031C272B9E
:100630004F08D3025008031C500FD4025108031C6A
:10064000510FD5025208031C520FD6020314F70DA6
:10065000F80DF90DFA0DD70BFF2A53088000840A14
:1006600054088000840A55088000840A56088000D7
:1006700008000408C3004208C5000319582B4108AC
:10068000CE004008CD003F08CC003E08CB00D20190
:10069000D1012030D0008230CF0043217A08C10040
:1006A0007908C0007808BF007708BE00C50B3F2B53
:1006B0004108CE004008CD003F08CC003E08CB00EA
:1006C0004B08B63CCB00FA014C08CF00CC17031006
:1006D000CC0CCD0CCE0CFA0CF90CF80CF70CCB0BA7
:1006E000672BCF1F7E2BF709F809F909FA09F70ADA
:1006F0000319F80A0319F90A0319FA0A7A08C1005A
:100700007908C0007808BF007708BE00C11F952B8C
:10071000C303C316BE09BF09C009C109BE0A031934
:10072000BF0A0319C00A0319C10A3B30CA009A3034
:10073000C900CA30C800C7010A30C5004208031901
:10074000C30A83143E30840083134108CE0040085E
:10075000CD003F08CC003E08CB004A08D200490833
:10076000D1004808D0004708CF00EA227808F708EF
:10077000031DCD2B420A45020319CD2B4308031953
:10078000CF2B0F3945020319C72B0318FF2BC31BAF
:10079000FF2B431BCF2B2030FB2B2030C305C31E68
:1007A000DD2BC3124208031DC3037708C3002D309D
:1007B000CB0084224308F700C30142084502031D11
:1007C000EB2B7708C3002E30CB0084224308F700C0
:1007D0002030C30500303030C31EFB2BC31242084B
:1007E000031DC3037708C3002D30CB0084224308C8
:1007F000F700C3013030F7077708CB00842283105D
:100800004A08CE004908CD004808CC004708CB0074
:10081000D201D101D0010A30CF00EA227A08CA0001
:100820007908C9007808C8007708C700C50BA12B54
:100830008A110A12012D430B1E2C212C4030C400BA
:10084000222CC40101304202C40744088038C5008C
:10085000C6014508C700802008003F08FA003E088E
:10086000840083137A18831780080319712C3F08BA
:10087000FA003E08840083137A1883170008C0002A
:100880004008C1004108073A0319502C0B3A0319DC
:10089000552C063A03195D2C023A0319632C682C77
:1008A0000130C200C3001B246D2CC6010130C700FB
:1008B00080200230C3000B206D2C0130C2000230BA
:1008C000C3001B246D2CC6011030C70080206D2C86
:1008D0000130C6004108C7008020BE0A0319BF0AC4
:1008E0002D2C8A110A12102D03081F398300A10133
:1008F000A00183161F149F141F159F1107309C0021
:1009000083138312DE280230BE00FA30C3000B20AE
:10091000BE0B852C83161F1383121F179F17831678
:100920009F1783121F1483161F109F101F119F11F2
:100930002830F80083121F08C73978049F00103050
:10094000F700F70BA12C00001F151F19A52C1E087E
:10095000FA0083161E088312BE001E08BF00242959
:100960007A08A5007908A4007808A3007708A200F7
:10097000CE01CD012030CC008130CB002508D20043
:100980002408D1002308D0002208CF0043217A0890
:10099000C1007908C0007808BF007708BE007A0857
:1009A000C5007908C4007808C3007708C200C901EF
:1009B000C030C8007F30C7008830C600B8297A0828
:1009C000A9007908A8007808A7007708A600A10167
:1009D0002A30A000043003178D0000308F00031070
:1009E00007300313BE00912A893084002908C10012
:1009F0002808C0002708BF002608BE000330C20038
:100A0000392B2030CB0084225630CB008422023098
:100A1000C2000130C3001B24BF012A30BE002D2CB0
:0A0A20006430C3000B20A42C630017
:02400E00323F3F
:00000001FF
;PIC16F877A
;CRC=321E  CREATED="20-Sep-23 20:37"
