:1000000002308A00642A0000412243103D10251866
:10001000343664003D3084008313000803191D2822
:100020000630F800F701F70B1328F80B12287B3085
:10003000F700F70B1928800B102808004318222816
:10004000081223280816831608128312C3182A28B8
:1000500088122B2888168316881283124319322897
:10006000081333280817831608138312C3193A2874
:1000700088133B288817831688130000831288157D
:10008000831688110230F700F70B44284728000038
:10009000831288118316881183120800C401831605
:1000A000081600308312081A0130C404831688161B
:1000B00000308312881A0130F7000310F70D77081B
:1000C000C4048316081700308312081B0130F700A0
:1000D000F70DF70DFC30F7057708C4048316881771
:1000E00000308312881B0130F700F70DF70DF70D74
:1000F000F830F7057708C4044408F80008008316B0
:100100008811881008118312881083168810081629
:10011000881608178817831208158316081100001F
:100120008312881583168811000083124E207808E8
:10013000C300881183168811000083128815831666
:100140008811A228A328000083124E207808C2003C
:1001500088118316881108128812081388138312D5
:10016000430EF700F030F70577084204F8007808EE
:10017000C200C21FBD2883168728C008031DC228DD
:100180008810C32888148316881000008312081171
:1001900083160811000083128811831688118312B8
:1001A000410EC2000F30C2054208C3001E204108A4
:1001B0000F39C200C3001E2008002830B9000C30DF
:1001C000BA000130BB000630BC00881183168811CC
:1001D0008312881083168810831208118316081161
:1001E00008128812081388138811881008110F301C
:1001F0008312BD000A200130B8003808033C031CFC
:1002000009290330C3001E200530BD000A20B80AAA
:10021000FD280230C3001E200530BD000A20B801B1
:100220003808033C031C2029393038078400831325
:100230000008BD00C0013D08C1007F20B80A102998
:100240008A110A12732A2008840083132118831745
:1002500041088000840A8001A00A0319A10A08004D
:100260000B08B9008B13831603178C170C140000AE
:10027000000083120313B91B8B1703186729031798
:100280000C087F390313B90003170D080313BA00D4
:1002900003170F080313BB003908C10023213A08D4
:1002A00003178D0003133B0803178F0003130B087C
:1002B000BC008B13831603178C170C14000000006E
:1002C00083120313BC1B8B17B80B672986290317EE
:1002D0000C0D0E0D7F390313B90003170D0803131E
:1002E000BA0003170F080313BB003908C10023210C
:1002F0003A0803178D0003133B0803178F008D0A7C
:1003000003198F0A03100313B80B30298A110A123C
:10031000AA2AC0010408BF004010831B4014B91F63
:100320009929BF173F1EBF0AB809B909B80A0319AE
:10033000B90A390EF038BB00BB07E23EBC00323EC2
:10034000BE0039080F39BC07BC07BE07E93EBD0037
:10035000BD07BD07380E0F39BD07BE07BD0DBE0D69
:10036000BE09BE0D38080F39BE07BB0D0730BA00F5
:100370000A30BE07BD03031CB929BD07BC03031C1B
:10038000BD29BC07BB03031CC129BB07BA03031C5F
:10039000C5293A308400831307303F053F13840397
:1003A0003F05031DDA293F1A840A3F1ADA29203053
:1003B000F700F72984073E30040203193F170008AD
:1003C000F700031DEB293F1BEB293F1A052ABF1934
:1003D000EB292030F629BF1FF3292D30F7008403C5
:1003E0003F13BF13F729BF153F123030F707B9018C
:1003F0000408B8003910831B39147708C100232181
:1004000038088400831339188317840A3F1FDB29B7
:100410008A110A12B12A3D0B0E2A112A4030BE0061
:10042000122ABE0101303C02BE073E088038BF00E0
:10043000C0013F08C1007F2008003908FA003808D1
:10044000840083137A18831780080319612A3908F6
:10045000FA003808840083137A1883170008BA005A
:100460003A08BB003B08073A0319402A0B3A031924
:10047000452A063A03194D2A023A0319532A582AE3
:100480000130BC00BD000B225D2AC0010130C1005B
:100490007F200230BD000A205D2A0130BC000230FE
:1004A000BD000B225D2AC0011030C1007F205D2AF3
:1004B0000130C0003B08C1007F20B80A0319B90A07
:1004C0001D2A8A110A12BA2A03081F398300A101C2
:1004D000A00183161F149F141F159F1107309C0045
:1004E00083138312DD280430B800FA30BD000A20DF
:1004F000B80B752A83161F1383121F179F178316B5
:100500009F1783121F1483161F109F101F119F1116
:100510000830F80083121F08C73978049F00103094
:10052000F700F70B912A00001F151F19952A831653
:100530001E088312A2001E08A300A1012430A000FF
:10054000043003178D0000308F00031006300313B2
:10055000B80030290A3084002308B9002208B80006
:1005600089290430BC000130BD000B22B9012430C0
:0E057000B8001D2A6430BD000A20942A6300E2
:02400E00323F3F
:00000001FF
;PIC16F877A
;CRC=EC6A  CREATED="17-Sep-23 16:36"
