:1000000000308A00962800002730840083130008FF
:10001000031917280630F800F701F70B0D28F80B25
:100020000C287B30F700F70B1328800B0A280800F8
:10003000A501240825020318462883168601831289
:10004000210886002308A600A60AA60303192C2867
:10005000FF30A700042025282208A700042021083B
:10006000A600A609831686018312260886002308A7
:10007000A600A60AA60303194128FF30A700042002
:100080003A282208A7000420A50A19288A110A1272
:10009000AB28A4012308240203186B288030A50094
:1000A0002508003C03186928831686018312250859
:1000B00086002208A600A60AA60303196328FF30BB
:1000C000A70004205C282108A70004200310A50C29
:1000D0005028A40A4A288A110A12B228A401230827
:1000E0002402031893280130A5002508803C031C36
:1000F0009128A508031991288316860183122508E3
:1001000086002208A600A60AA60303198B28FF3042
:10011000A700042084282108A70004200310A50DAF
:100120007528A40A6F288A110A12B92803081F39F2
:10013000830083161F149F141F159F1107309C0006
:100140008313AA308312A1000130A300F430A2006F
:100150000230A40018280130A200F430A1000130C0
:10016000A30049280130A200F430A1000130A3000F
:080170006E288316A12863002C
:02400E00323F3F
:00000001FF
;PIC16F877A
;CRC=95BB  CREATED="10-Sep-23 12:42"
