:1000000001308A0056290000A7012608270203189C
:10001000FF28270824078400831325188317000866
:10002000A8002808A900F701A91B7714770801394F
:10003000031D1C2887101D288714A0102008831674
:100040008700831207102010200883168700831270
:10005000071420102008831687008312290EF7004A
:10006000F70CF70C0330F70577080139031D3A2820
:1000700087103B288714A01020088316870083125E
:100080000710201020088316870083120714201001
:100090002008831687008312290EF700F70C07301B
:1000A000F70577080139031D57288710582887144A
:1000B000A010200883168700831207102010200844
:1000C00083168700831207142010200883168700E8
:1000D0008312290EF7000F30F70577080139031D49
:1000E0007328871074288714A010200883168700AF
:1000F000831207102010200883168700831207142C
:1001000020102008831687008312290CF700F70CB3
:10011000F70C1F30F70577080139031D9128871068
:1001200092288714A01020088316870083120710D6
:10013000201020088316870083120714201020083F
:10014000831687008312290CF700F70C3F30F70560
:1001500077080139031DAE288710AF288714A01037
:1001600020088316870083120710201020088316AA
:1001700087008312071420102008831687000310BD
:100180008312290C0139031DC7288710C82887143A
:10019000A010200883168700831207102010200863
:1001A0008316870083120714201020088316870007
:1001B000831229080139031DDF288710E0288714DE
:1001C000A010200883168700831207102010200833
:1001D00083168700831207142010200883168700D7
:1001E0008312071120112008831687008312071538
:1001F00020112008831687008312A70A05288A1178
:100200000A12702925308400831300080319152968
:100210000630F800F701F70B0B29F80B0A297B30A1
:10022000F700F70B1129800B08290800A508031D0A
:100230001B2987101C298714A0102008831687000B
:1002400083120710201020088316870083120714DA
:100250002010200883168700831207112011200820
:100260008316870083120715201120088316870044
:1002700083120800A4012408173C031C47290130FD
:10028000A5001621C830A5000221A40A3B29A4011B
:100290002408173C031C5329A5011621C830A500CA
:1002A0000221A40A48298A110A12842903081F3945
:1002B0008300FF30A00083161F149F141F159F1189
:1002C00007309C00831380308312A1005530A200B8
:1002D0000130A300A5012130A4000330A6000428AA
:1002E0000430A400FA30A5000221A40B7229871162
:1002F000A01120088316870083128715A0112008FB
:0C0300008316870083123A2983296300CA
:02400E00323F3F
:00000001FF
;PIC16F877A
;CRC=BAB8  CREATED="10-Sep-23 17:09"
