:1000000001308A007F290000FF00030E8301A10058
:100010000A08A0008A010408A2007708A300780853
:10002000A4007908A5007A08A600831383128C30F7
:100030008400001C1D280C182E2822088400230888
:10004000F7002408F8002508F9002608FA0020081F
:100050008A00210E8300FF0E7F0E09008A110A120A
:100060003128B30A34083302031D3C28B301831638
:1000700006100130831286060C108A110A121D2800
:1000800039080319B028C1003D080319B028C10779
:10009000031851287F30C102031CB0280319B0286F
:1000A00055288130C1070318B0284108F700F8012E
:1000B000F901FA013A08C500C5173B08C4003C081D
:1000C000C3001830C100C201431C7E284008FA0753
:1000D000031C7028F90A031D7028F80A0319C217B7
:1000E0003F08F907031C7728F80A0319C2173E08CE
:1000F000BB00BB173B08F8070318C217C20DF80C6A
:10010000F90CFA0CC50CC40CC30C0310C10B63280A
:100110000130F7070318B028F81B9528C50DFA0D14
:10012000F90DF80DF7030319B028C51FA628FA0A20
:10013000031DA628F90A031DA628F80A031DA628F0
:10014000F80CF90CFA0CF70A0319B0283A08C200A7
:100150003E08C206C21FAE28F817B428F813B42808
:10016000F701F801F901FA010800390803197A29A1
:10017000C5003D0803197A29C502031CC4287F3035
:10018000C50703187A29CA288130C502031C7A29B9
:1001900003197A294508F700F801F901FA01C401A9
:1001A0003A08C300C3173B08C2003C08C10019301D
:1001B000C5004008C1020318ED280130C20203182F
:1001C000ED28C3020318ED28C4020318ED28C40A61
:1001D000C30AC20A4008C1071F293F08C202031808
:1001E00008290130C30203180829C402031808298A
:1001F000C40AC30A3F08C2074008C107031C1F29DD
:10020000C20A031D1F29C30A031D1F29C40A1F296F
:100210003E088038C30203181E290130C4020318A7
:100220001E29C40A3E088038C3073F08C207031CC2
:10023000FC28C30A031DFC28C40AFC287A14C50B39
:1002400022292D290310C10DC20DC30DC40D0310A9
:10025000FA0DF90DF80DC60DD928461C35290310E5
:10026000F80CF90CFA0CC60C3829F70303197A2993
:10027000C61B61290310C10DC20DC30DC40D40087A
:10028000C10203184D290130C20203184D29C302CF
:1002900003184D29C402031C70293F08C202031829
:1002A00058290130C30203185829C402031C7029BD
:1002B0003E088038C302031861290130C402031CC0
:1002C0007029FA0A031D7029F90A031D7029F80A1A
:1002D000031D7029F70A03197A29F80CF90CFA0C96
:1002E0003A08C5003E08C506C51F7829F8177E29BB
:1002F000F8137E29F701F801F901FA010800030853
:100300001F398300AA01A901A8017F30A700AE010F
:10031000AD01AC018030AB002E08BC002D08BB0045
:100320002C08BA002B08B900CD30C000CC30BF007B
:100330004C30BE008F30BD0040207A08B8007908EC
:10034000B7007808B6007708B5003808BC00370851
:10035000BB003608BA003508B900C001BF01BE01B4
:100360008230BD00B5207A08B2007908B100780863
:10037000B0007708AF00B3012A08BC002908BB0011
:100380002808BA002708B900C001BF01BE018030AB
:10039000BD00B5207A08B8007908B7007808B60023
:1003A0007708B5003808BC003708BB003608BA002B
:1003B0003508B900C0012430BF007430BE0092304F
:1003C000BD0040207A08B8007908B7007808B60068
:1003D0007708B5003808BC003708BB003608BA00FB
:1003E0003508B9003208C0003108BF003008BE002F
:1003F0002F08BD00B5207A08B8007908B700780842
:10040000B6007708B5008E30F7003508F7023608D9
:10041000F9003708F800F917F70803191A2A03102A
:10042000F908031D162AF80803191A2AF90CF80C02
:10043000F70B0F2AB61F212AF809F909F80A031940
:10044000F90A7808B40083161F149F141F159F1112
:1004500007309C008313061083120610953090001D
:100460008E018F018E0183160C14C03083128B0411
:04047000382A6300C3
:02400E00323F3F
:00000001FF
;PIC16F877A
;CRC=D602  CREATED="19-Sep-23 21:57"
