:1000000001308A00672900000A108A100A1182074D
:100010003734383439342F34343435343634783452
:100020003134323433342D34203430343D342B34B5
:10003000CB32791DA012E3060A00FF30A200A30014
:1000400086118316861186178312861B2A28A30120
:10005000A2014428831606178312061B3328A30126
:100060000130A2004428831686168312861A3C2883
:10007000A3010230A2004428831606168312061A32
:100080004428A3010330A20086158316861183122B
:1000900006118316061186178312861B532801301A
:1000A000A300A2016F28831606178312061B5C2883
:1000B0000130A300A2006F28831686168312861AC9
:1000C00066280130A3000230A2006F2883160616AE
:1000D0008312061A6F280130A3000330A200061510
:1000E00083160611831286108316861086178312D4
:1000F000861B7E280230A300A2019A2883160617C9
:100100008312061B88280230A3000130A2009A281F
:10011000831686168312861A91280230A300A20045
:100120009A28831606168312061A9A280230A3000C
:100130000330A200861483168610831206108316DD
:10014000061086178312861BA9280330A300A2017C
:10015000C528831606178312061BB3280330A30095
:100160000130A200C528831686168312861ABD2880
:100170000330A3000230A200C5288316061683129E
:10018000061AC5280330A300A20006148316061021
:1001900083122308FF3C0319D828220DF700F70D1E
:1001A000FC30F705770823070420F800F800DA2868
:1001B000FF30F8008A110A127C292208FF3C03193B
:1001C0004E29183003178D0000308F0003100530C2
:1001D0000313A3000B08A4008B13831603178C17BB
:1001E0000C140000000083120313A41B8B170318C8
:1001F000222903170C087F390313A40003170D08E5
:100200000313A50003170F080313A60024080C1EF0
:1002100007299900250803178D00031326080317E3
:100220008F0003130B08A7008B13831603178C177B
:100230000C140000000083120313A71B8B17A30BE1
:100240002229422903170C0D0E0D7F390313A40038
:1002500003170D080313A50003170F080313A600C7
:1002600024080C1E31299900250803178D0003135B
:10027000260803178F008D0A03198F0A0310031332
:10028000A30BEA2822080C1E432999000D300C1EEE
:10029000472999000A300C1E4B2999008A110A122D
:1002A0008129223084008313000803196429063051
:1002B000F800F701F70B5A29F80B59297B30F700A2
:1002C000F70B6029800B57298A110A128429030829
:1002D0001F398300813083169900A6309800903032
:1002E0008312980083161F149F141F159F11073047
:1002F0009C00831383121D287808A1002108A20006
:0C030000DD28C830A20051297B296300D1
:02400E00323F3F
:00000001FF
;PIC16F877A
;CRC=45F9  CREATED="16-Sep-23 17:41"
