:1000000000308A00DB280000FF00030E8301A100FE
:100010000A08A0008A010408A2007708A300780853
:10002000A4007908A5007A08A60003170D08031399
:10003000A70003170F080313A80003170C080313E6
:10004000A90003170E080313AA00831383128C3030
:100050008400801E2D288C1A4E2822088400230834
:10006000F7002408F8002508F9002608FA002708F8
:1000700003178D000313280803178F0003132908A3
:1000800003178C0003132A0803178E00031320089C
:100090008A00210E8300FF0E7F0E09008A110A12CA
:1000A00051288C1E51281A08AF002F08313C031D1F
:1000B0005E28061483160610612883120610831624
:1000C000061083128C128A110A122D284324452A05
:1000D0004F2A0D0500000B08AB008B138316031786
:1000E0008C170C140000000083120313AB1B8B173A
:1000F00003170C087F390319C1280313AB0003173A
:100100000D080313AC0003170F080313AD002B08F1
:100110000C1E882899002C0803178D0003132D0846
:1001200003178F0003130B08AE008B1383160317FE
:100130008C170C140000000083120313AE1B8B17E6
:1001400003170C0D0E0D7F390319C1280313AB00E3
:1001500003170D080313AC0003170F080313AD00BA
:100160002B080C1EB12899002C0803178D000313CF
:100170002D0803178F008D0A03198F0A03136B28AC
:10018000031703138A110A12F9282C3084008313F1
:1001900000080319D8280630F800F701F70BCE281D
:1001A000F80BCD287B30F700F70BD428800BCB2839
:1001B0008A110A12FE2803081F3983008130831632
:1001C0009900A630980090308312980083161F146F
:1001D0009F141F159F1107309C0083138C16C0308D
:1001E00083128B04663003178D0000308F000313D9
:1001F0006B280430AB00FA30AC00C528AB0BFB28F1
:04020000F22863007D
:02400E00323F3F
:00000001FF
;PIC16F877A
;CRC=CFBA  CREATED="20-Sep-23 21:29"
