:1000000000308A007028000025080739F700250C09
:10001000F800F80CF80C1F30F80578082707840062
:10002000831328188317F801F80AF70A1828F80D1F
:10003000F70B1728A608031920287808800423281E
:10004000F80978088005080026308400831300082A
:10005000031937280630F800F701F70B2D28F80BA5
:100060002C287B30F700F70B3328800B2A28080058
:100070002108A5000130A600A801A701042021083D
:10008000A500A601A8018030A70004202408A5002F
:10009000A50AA50303195028FF30A60024204928EB
:1000A0002308A60024202108A500A601A801A70175
:1000B00004202108A500A601A8018030A700042083
:1000C0002408A500A50AA50303196A28FF30A60085
:1000D000242063282308A60024208A110A128428D9
:1000E00003081F39830083161F149F141F159F11C7
:1000F00007309C0083138312A2013030A10003302B
:0C010000A400E830A30038287C2863002D
:02400E00323F3F
:00000001FF
;PIC16F877A
;CRC=27F9  CREATED="21-Jul-23 11:26"
