:1000000000308A007A2800003008F8012F02031817
:100010000C282F08F7001828F7010830B100AF0DA1
:10002000F70D300877020318F700F80DB10B0F2811
:1000300008002F3084008313000803192C28063091
:10004000F800F701F70B2228F80B21287B30F70086
:10005000F70B2828800B1F280800AA012A08633CF8
:10006000031C7728AB012B08AB0AC73C031C75287F
:100070002A08AC002C08AF000A30B0000420780831
:10008000AD002C08AF000A30B00004207708AE00A5
:1000900086148316861083120610831606102030ED
:1000A00083122D07840083130008AF008316880194
:1000B00083122F0888000130AF0019200614831620
:1000C00006108312861083168610203083122E07A6
:1000D000840083130008AF008316880183122F0861
:1000E00088000130AF0019203328AA0A2E288A116F
:1000F0000A129B2803081F39830083161F149F14BC
:100100001F159F1107309C008313C0308312A0007D
:10011000F930A100A430A200B030A3009930A400AF
:100120009230A5008230A600F830A7008030A800E9
:0A0130009030A9002D289A286300E2
:02400E00323F3F
:00000001FF
;PIC16F877A
;CRC=D1C8  CREATED="10-Sep-23 20:15"
