:1000000000308A007D2800002318082807100928DE
:100010000714201020088316870003108312230C76
:100020000139031D1528871016288714A0102008F1
:10003000831687008312230CF700F70C3F30F70577
:1000400077080139031D26280711272807152011D5
:100050002008831687008312230CF700F70CF70C97
:100060001F30F70577080139031D38288711392813
:100070008715A011200883168700831208002330FB
:10008000840083130008031952280630F800F70192
:10009000F70B4828F80B47287B30F700F70B4E2862
:1000A000800B45280800A1012108083C031C652895
:1000B0002108A10AA200A30004200230A200FA3005
:1000C000A3003F20A20B5F2854288A110A128C2813
:1000D0000930A100A10803197A282108A103A20070
:1000E000A30004200230A200FA30A3003F20A20B9C
:1000F00074286A288A110A128D2803081F39830080
:10010000FF30A00083161F149F141F159F11073086
:0E0110009C0083138312532868288B286300F9
:02400E00323F3F
:00000001FF
;PIC16F877A
;CRC=32B7  CREATED="10-Sep-23 19:53"
