:1000000001308A005C2900003108F8013002031831
:100010000C283008F7001828F7010830B200B00D9E
:10002000F70D310877020318F700F80DB20B0F280F
:100030000800F701B11B771477080139031D222846
:10004000871023288714A0102008831687008312A6
:100050000710201020088316870083120714201031
:100060002008831687008312310EF700F70CF70C77
:100070000330F70577080139031D40288710412810
:100080008714A01020088316870083120710201001
:100090002008831687008312071420102008831677
:1000A00087008312310EF700F70C0730F705770849
:1000B0000139031D5D2887105E288714A0102008D1
:1000C00083168700831207102010200883168700EC
:1000D0008312071420102008831687008312310E24
:1000E000F7000F30F70577080139031D79288710CD
:1000F0007A288714A010200883168700831207101F
:10010000201020088316870083120714201020086F
:10011000831687008312310CF700F70CF70C1F30A1
:10012000F70577080139031D972887109828871449
:10013000A0102008831687008312071020102008C3
:100140008316870083120714201020088316870067
:100150008312310CF700F70C3F30F70577080139AF
:10016000031DB4288710B5288714A0102008831613
:10017000870083120710201020088316870083123F
:100180000714201020088316870003108312310CF7
:100190000139031DCD288710CE288714A010200810
:1001A000831687008312071020102008831687000B
:1001B0008312071420102008831687008312310849
:1001C0000139031DE5288710E6288714A0102008B0
:1001D00083168700831207102010200883168700DB
:1001E000831207142010200883168700831207113A
:1001F000201120088316870083120715201120087C
:1002000083168700831208003030840083130008AF
:10021000031917290630F800F701F70B0D29F80B21
:100220000C297B30F700F70B1329800B0A290800F3
:100230006330AB00AC012C08AC0A633C031C5729AB
:100240002B08AD002D08B0000A30B100042078085A
:10025000AE002D08B0000A30B10004207708AF00CE
:10026000861483168610831206108316061021301A
:1002700083122E07840083130008B000B1001920F8
:100280000530B00004210614831606108312861070
:1002900083168610213083122F07840083130008F1
:1002A000B000B10019200530B00004211B29AB03B8
:1002B0001A298A110A127F2903081F398300FF3087
:1002C000A00083161F149F141F159F1107309C0058
:1002D0008313C0308312A100F930A200A430A30020
:1002E000B030A4009930A5009230A6008230A7005B
:1002F000F830A8008030A9009030AA0018297E2983
:02030000630098
:02400E00323F3F
:00000001FF
;PIC16F877A
;CRC=2FDC  CREATED="15-Sep-23 21:49"
