:1000000001308A00812900002F0830068039B200B3
:10001000AF1F0C28AF09AF0AB01F1028B009B00AF3
:100020003008F8012F02031818282F08F700242899
:10003000F7010830B100AF0DF70D30087702031853
:10004000F700F80DB10B1B28B21F2828F809F80A91
:100050000800F701B01B771477080139031D322817
:10006000871033288714A010200883168700831276
:100070000710201020088316870083120714201011
:100080002008831687008312300EF700F70CF70C58
:100090000330F70577080139031D502887105128D0
:1000A0008714A010200883168700831207102010E1
:1000B0002008831687008312071420102008831657
:1000C00087008312300EF700F70C0730F70577082A
:1000D0000139031D6D2887106E288714A010200891
:1000E00083168700831207102010200883168700CC
:1000F0008312071420102008831687008312300E05
:10010000F7000F30F70577080139031D892887109C
:100110008A288714A01020088316870083120710EE
:10012000201020088316870083120714201020084F
:10013000831687008312300CF700F70CF70C1F3082
:10014000F70577080139031DA7288710A828871409
:10015000A0102008831687008312071020102008A3
:100160008316870083120714201020088316870047
:100170008312300CF700F70C3F30F7057708013990
:10018000031DC4288710C5288714A01020088316D3
:10019000870083120710201020088316870083121F
:1001A0000714201020088316870003108312300CD8
:1001B0000139031DDD288710DE288714A0102008D0
:1001C00083168700831207102010200883168700EB
:1001D000831207142010200883168700831230082A
:1001E0000139031DF5288710F6288714A010200870
:1001F00083168700831207102010200883168700BB
:100200008312071420102008831687008312071119
:10021000201120088316870083120715201120085B
:1002200083168700831208002F3084008313000890
:10023000031927290630F800F701F70B1D29F80BE1
:100240001C297B30F700F70B2329800B1A290800A3
:10025000831606158312061D372983160615831289
:1002600006192D29AB0A2B08643C0319AB01831630
:1002700086158312861D48298316861583128619D2
:100280003C29AB032B08FF3C031D48296330AB001E
:100290002B08AC002C08AF000A30B000042078080E
:1002A000AD002C08AF000A30B00004207708AE0083
:1002B00086148316861083120610831606102130CA
:1002C00083122D07840083130008AF00B00029209B
:1002D0000530AF0014210614831606108312861011
:1002E00083168610213083122E07840083130008A2
:1002F000AF00B00029200530AF0014218A110A1286
:10030000A52903081F398300FF30A000AB01831625
:100310001F149F141F159F1107309C008313C030BA
:100320008312A100F930A200A430A300B030A400D1
:100330009930A5009230A6008230A700F830A800BE
:0E0340008030A9009030AA002829A42963006B
:02400E00323F3F
:00000001FF
;PIC16F877A
;CRC=A381  CREATED="16-Sep-23 10:28"
