:1000000000308A006028000023080739F700230C1D
:10001000F800F80CF80C1F30F80578082507840064
:10002000831326188317F801F80AF70A1828F80D21
:10003000F70B1728A4080319202878088004232820
:10004000F80978088005080023080739F700230C11
:10005000F800F80CF80C1F30F80578082407840025
:100060008313251883170008F800F70A3828F80CBE
:10007000F70B372808002108A3000130A400A601CF
:100080008030A50004202108A300A501A40124209C
:1000900078185D282108A3000130A400A601803053
:1000A000A50004202108A300A501A4012420781C98
:1000B0004A280130F8005F285F280030F800080067
:1000C00003081F39830083161F149F141F159F11E7
:1000D00007309C008313061083120610A2013830EB
:1000E000A1003B20F8080319792883160610831213
:1000F0000614A2013930A1003B20F8080319842816
:100100008316061083120610A2013A30A1003B208C
:10011000F80803199028831606100130831286060A
:040120006E286300E2
:02400E00323F3F
:00000001FF
;PIC16F877A
;CRC=2735  CREATED="10-Sep-23 18:05"
