:1000000000308A000428000003081F39830083168B
:100010001F149F141F159F1107309C008313861413
:100020008312861C1B280814831608108312881458
:10003000831688108312831606158312061D28283E
:1000400008158316081183128815831688118312E8
:10005000831686158312861D3D2808108316081006
:1000600083128810831688108312081183160811D2
:100070008312881183168811831283160F28630058
:02400E00323F3F
:00000001FF
;PIC16F877A
;CRC=7053  CREATED="10-Sep-23 18:13"
