:1000000002308A00452A00003908840083133A1818
:100010008317153080003B08840083133C18831736
:100020000C3080003D08840083133E18831709308C
:1000300080008A110A12782A543084008313000841
:1000400003192F280630F800F701F70B2528F80BC5
:1000500024287B30F700F70B2B28800B2228080080
:100060005B183428081235280816831608128312E4
:10007000DB183C2888123D288816831688128312C4
:100080005B194428081345280817831608138312A0
:10009000DB194C2888134D28881783168813000015
:1000A00083128815831688110230F700F70B562843
:1000B00059280000831288118316881183120800C2
:1000C000DC018316081600308312081A0130DC04A4
:1000D0008316881600308312881A0130F700031047
:1000E000F70D7708DC048316081700308312081B0D
:1000F0000130F700F70DF70DFC30F7057708DC0449
:100100008316881700308312881B0130F700F70D23
:10011000F70DF70DF830F7057708DC045C08F800F8
:10012000080083168811881008118312881083161E
:100130008810081688160817881783120815831662
:10014000081100008312881583168811000083129D
:1001500060207808DB008811831688110000831264
:10016000881583168811B428B528000083126020F2
:100170007808DA008811831688110812881208138B
:10018000881383125B0EF700F030F70577085A04E6
:10019000F8007808DA00DA1FCF2883169928D808E3
:1001A000031DD4288810D5288814831688100000D1
:1001B0008312081183160811000083128811831618
:1001C00088118312590EDA000F30DA055A08DB0065
:1001D000302059080F39DA00DB00302008002830C1
:1001E000BA000C30BB000130BC000630BD008811E5
:1001F00083168811831288108316881083120811C1
:1002000083160811081288120813881388118810A1
:1002100008110F308312D4001C200130B9003908B6
:10022000033C031C1B290330DB0030200530D400C5
:100230001C20B90A0F290230DB0030200530D40021
:100240001C20B9013908033C031C32293A30390714
:10025000840083130008BE00D8013E08D900912015
:10026000B90A22298A110A12792A550B38293B2901
:100270004030D6003C29D60101305402D60756083A
:100280008038D700D8015708D900912008005108BC
:10029000FA005008840083137A1883178008031922
:1002A0008B295108FA005008840083137A188317A9
:1002B0000008D2005208D3005308073A03196A29EC
:1002C0000B3A03196F29063A03197729023A0319E1
:1002D0007D2982290130D400D50035218729D80114
:1002E0000130D90091200230D4001C208729013030
:1002F000D4000230D50035218729D8011030D9002B
:10030000912087290130D8005308D9009120D00AC4
:100310000319D10A472908005708F80156020318A3
:1003200094295608F700A029F7010830D800D60D07
:10033000F70D570877020318F700F80DD80B972927
:1003400008002008840083132118831756088000B2
:10035000840A8001A00A0319A10A08002030511E56
:100360003030D2005008F700D01FBE29F709F70A35
:100370007708D0002D30D200D11751145008D60084
:100380006430D7008C217708D00030307807D30054
:100390005008D6000A30D7008C2130307707D500BE
:1003A00030307807D4005208F70030305302031978
:1003B000DD29D114D11B5115F1295119F129520808
:1003C000D300D118E829303054020319EB29511415
:1003D000D11BD114F129031D5114031DF129530818
:1003E000D4005119F829D118FB295118FE29012AE6
:1003F0005208D600A1215308D600A1215408D600E6
:10040000A1215508D600A12108003908173C031C7A
:10041000412A3A083B3C031C3E2A3B083B3C031C58
:100420003B2AA1013C30A0003908D0000130D100A6
:10043000AE213A30D600A1213A08D0000130D100D7
:10044000AE213A30D600A1213B08D0000130D100C6
:10045000AE210530D4000230D5003521D1013C3029
:10046000D00047210430D000FA30D4001C20D00B3B
:10047000342ABB0A0D2ABB01BA0A092ABA01B90AF1
:10048000052AB9018A110A12902A03081F3983002C
:10049000A101A00183161F149F141F159F1107307F
:1004A0009C00831344308312A2006930A30067309C
:1004B000A4006930A5007430A6006130A7006C303C
:1004C000A8002030A9004330AA006C30AB006F3088
:1004D000AC006330AD006B30AE00AF01BA01363016
:1004E000B900BC013730BB00BE013830BD00042864
:1004F000EF280230B900FA30D4001C20B90B7B2A57
:100500000330D4000130D5003521D1012230D00094
:1005100047213608B9003708BA003808BB00052A59
:04052000892A6300C1
:02400E00323F3F
:00000001FF
;PIC16F877A
;CRC=5147  CREATED="17-Sep-23 17:39"
